{
  "contractName": "stock",
  "abi": [
    {
      "inputs": [],
      "name": "currentStock",
      "outputs": [
        {
          "internalType": "int256",
          "name": "",
          "type": "int256"
        }
      ],
      "stateMutability": "view",
      "type": "function"
    },
    {
      "inputs": [],
      "name": "entries",
      "outputs": [
        {
          "internalType": "uint256",
          "name": "",
          "type": "uint256"
        }
      ],
      "stateMutability": "view",
      "type": "function"
    },
    {
      "inputs": [
        {
          "internalType": "uint256",
          "name": "",
          "type": "uint256"
        }
      ],
      "name": "stockRecord",
      "outputs": [
        {
          "internalType": "uint256",
          "name": "id",
          "type": "uint256"
        },
        {
          "internalType": "int256",
          "name": "amount",
          "type": "int256"
        },
        {
          "internalType": "bool",
          "name": "condition",
          "type": "bool"
        }
      ],
      "stateMutability": "view",
      "type": "function"
    },
    {
      "inputs": [
        {
          "internalType": "uint256",
          "name": "id",
          "type": "uint256"
        },
        {
          "internalType": "int256",
          "name": "amount",
          "type": "int256"
        },
        {
          "internalType": "bool",
          "name": "conditon",
          "type": "bool"
        }
      ],
      "name": "enterstock",
      "outputs": [],
      "stateMutability": "nonpayable",
      "type": "function"
    },
    {
      "inputs": [
        {
          "internalType": "uint256",
          "name": "entry",
          "type": "uint256"
        }
      ],
      "name": "return_data",
      "outputs": [
        {
          "components": [
            {
              "internalType": "uint256",
              "name": "id",
              "type": "uint256"
            },
            {
              "internalType": "int256",
              "name": "amount",
              "type": "int256"
            },
            {
              "internalType": "bool",
              "name": "condition",
              "type": "bool"
            }
          ],
          "internalType": "struct stock.stockEntry",
          "name": "",
          "type": "tuple"
        }
      ],
      "stateMutability": "view",
      "type": "function"
    }
  ],
  "bytecode": "0x608060405260008055600060015534801561001957600080fd5b50610607806100296000396000f3fe608060405234801561001057600080fd5b50600436106100575760003560e01c80630fc993761461005c5780631eceec571461007a578063b96660fc146100ac578063e97ed612146100ca578063fe6e1749146100fa575b600080fd5b610064610116565b6040516100719190610291565b60405180910390f35b610094600480360381019061008f91906102dd565b61011c565b6040516100a39392919061033e565b60405180910390f35b6100b4610153565b6040516100c19190610375565b60405180910390f35b6100e460048036038101906100df91906102dd565b610159565b6040516100f191906103ff565b60405180910390f35b610114600480360381019061010f9190610472565b6101bb565b005b60015481565b60026020528060005260406000206000915090508060000154908060010154908060020160009054906101000a900460ff16905083565b60005481565b610161610255565b60006002600084815260200190815260200160002060405180606001604052908160008201548152602001600182015481526020016002820160009054906101000a900460ff161515151581525050905080915050919050565b816000546101c991906104f4565b6000819055506040518060600160405280848152602001838152602001821515815250600260006001548152602001908152602001600020600082015181600001556020820151816001015560408201518160020160006101000a81548160ff0219169083151502179055509050506001600081548092919061024b90610588565b9190505550505050565b604051806060016040528060008152602001600081526020016000151581525090565b6000819050919050565b61028b81610278565b82525050565b60006020820190506102a66000830184610282565b92915050565b600080fd5b6102ba81610278565b81146102c557600080fd5b50565b6000813590506102d7816102b1565b92915050565b6000602082840312156102f3576102f26102ac565b5b6000610301848285016102c8565b91505092915050565b6000819050919050565b61031d8161030a565b82525050565b60008115159050919050565b61033881610323565b82525050565b60006060820190506103536000830186610282565b6103606020830185610314565b61036d604083018461032f565b949350505050565b600060208201905061038a6000830184610314565b92915050565b61039981610278565b82525050565b6103a88161030a565b82525050565b6103b781610323565b82525050565b6060820160008201516103d36000850182610390565b5060208201516103e6602085018261039f565b5060408201516103f960408501826103ae565b50505050565b600060608201905061041460008301846103bd565b92915050565b6104238161030a565b811461042e57600080fd5b50565b6000813590506104408161041a565b92915050565b61044f81610323565b811461045a57600080fd5b50565b60008135905061046c81610446565b92915050565b60008060006060848603121561048b5761048a6102ac565b5b6000610499868287016102c8565b93505060206104aa86828701610431565b92505060406104bb8682870161045d565b9150509250925092565b7f4e487b7100000000000000000000000000000000000000000000000000000000600052601160045260246000fd5b60006104ff8261030a565b915061050a8361030a565b9250817f7fffffffffffffffffffffffffffffffffffffffffffffffffffffffffffffff03831360008312151615610545576105446104c5565b5b817f800000000000000000000000000000000000000000000000000000000000000003831260008312161561057d5761057c6104c5565b5b828201905092915050565b600061059382610278565b91507fffffffffffffffffffffffffffffffffffffffffffffffffffffffffffffffff8214156105c6576105c56104c5565b5b60018201905091905056fea2646970667358221220456150688ad97c50740eec04865204788a09de64a6bec5db1d702e2c9388b0c364736f6c63430008090033",
  "immutableReferences": {},
  "source": "pragma solidity ^0.8.9;\r\n\r\ncontract stock {\r\n    int public currentStock = 0;\r\n    uint public entries = 0;\r\n\r\n    struct stockEntry {\r\n        uint id;\r\n        int amount;\r\n        bool condition;\r\n    }\r\n\r\n    mapping(uint => stockEntry) public stockRecord;\r\n\r\n    function enterstock(uint id, int amount, bool conditon) public {\r\n        currentStock = currentStock + amount;\r\n        stockRecord[entries] = stockEntry(id, amount,conditon);\r\n        entries++;\r\n    }\r\n\r\n    function return_data(uint entry) public view returns (stockEntry memory) {\r\n        stockEntry memory val = stockRecord[entry];\r\n        return val;\r\n    }\r\n    // function return_entries() public view returns (uint) {\r\n    //     uint numb =  entries;\r\n    //     return numb;\r\n    // }\r\n}",
  "sourcePath": "C:\\Users\\rachi\\eth-main\\contracts\\stock.sol",
  "compiler": {
    "name": "solc",
    "version": "0.8.9+commit.e5eed63a.Emscripten.clang"
  },
  "schemaVersion": "3.4.3",
  "updatedAt": "2021-10-25T09:54:12.491Z",
  "devdoc": {
    "kind": "dev",
    "methods": {},
    "version": 1
  },
  "userdoc": {
    "kind": "user",
    "methods": {},
    "version": 1
  }
}